:100000000C94E4010C949B030C9403020C940302E3
:100010000C9403020C9403020C9403020C9403024C
:100020000C9403020C9403020C9403020C9403023C
:100030000C9403020C9403020C9403020C9403022C
:100040000C9403020C9403020C9403020C9403021C
:100050000C9403020C9403020C9403020C9403020C
:100060000C9403020C9403020C9403020C940302FC
:100070000C9403020C9403020C9403020C940302EC
:100080000C9403020C9403020C9403020902220054
:100090000101008032090400000103000000092171
:1000A000010100012269000705810308000A12010D
:1000B000100100000008401C250504010102000198
:1000C000120347004C004300440032005500530027
:1000D00042003C037700770077002E006800610043
:1000E00072006200610075006D002E006F007200EA
:1000F00067002F00740069006C006C002F0067001F
:100100006C00630064003200750073006200040339
:100110000904563A2025642E253264002020202030
:1001200020202A2A2A20474C434432555342202A71
:100130002A2A0011470600FF0901A101150026FF28
:10014000007508850195250900B202018502950117
:100150000900B20201850395010900B2020185047C
:1001600095010900B20201850895070900B2020154
:100170008509950B0900B20201850A95130900B2A1
:100180000201850B95230900B20201850C954309F4
:1001900000B20201850E95C30900B20201C0014BF5
:1001A0005330313038000000000000000000000033
:1001B000000000000000000000000000000000C47B
:1001C000004000120B3E41414141424242423C004C
:1001D00006FFFFFFFFFFFF000000000000005F00C0
:1001E000000007000700147F147F14242A7F2A12BE
:1001F00023130864623649552250000503000000AD
:100200001C2241000041221C00082A1C2A08080860
:100210003E08080050300000080808080800606028
:10022000000020100804023E5149453E00427F4034
:100230000042615149462141454B311814127F104B
:1002400027454545393C4A4949300171090503367E
:1002500049494936064949291E00363600000056EC
:1002600036000000081422411414141414412214FE
:1002700008000201510906324979413E7E111111EF
:100280007E7F494949363E414141227F4141221CFE
:100290007F494949417F090901013E414151327F6E
:1002A0000808087F00417F41002040413F017F084E
:1002B0001422417F404040407F0204027F7F0408B7
:1002C000107F3E4141413E7F090909063E415121CF
:1002D0005E7F09192946464949493101017F0101DB
:1002E0003F4040403F1F2040201F7F2018207F6359
:1002F0001408146303047804036151494543000062
:100300007F4141020408102041417F0000040201A6
:100310000204404040404000010204002054545474
:10032000787F484444383844444420384444487F23
:100330003854545418087E090102081454543C7F60
:100340000804047800447D40002040443D00007FC4
:1003500010284400417F40007C041804787C080485
:10036000047838444444387C1414140808141418CD
:100370007C7C080404084854545420043F44402022
:100380003C4040207C1C2040201C3C4030403C44F1
:10039000281028440C5050503C4464544C440008ED
:1003A00036410000007F0000004136080008082A9E
:1003B0001C08081C2A0808303132333435363738E7
:1003C000394142434445460011241FBECFEFD0E4DB
:1003D000DEBFCDBF11E0A0E0B1E0EAE7F3E200E06C
:1003E0000BBF02C007900D92AC30B107D9F712E0F5
:1003F000ACE0B1E001C01D92A138B107E1F70E9465
:1004000023100C94BB110C940000CF93C62F2091A5
:10041000490224FF19C020914A0238E8232720937B
:100420004A022C2FFC01ABE4B2E081918D93215064
:100430001216DCF36C2F8BE492E00E949703CC5FE2
:10044000C0934902CF9108952AE520934902E9CF4C
:10045000CF93DF9360915A02635067FD13C0809180
:100460005702CCE0D0E0C81BD109C25ADD4F8091C1
:1004700056028D3209F458C080910C0187FD9DC051
:1004800010925A028091010184FF41C060910001E5
:100490006F3F09F43CC0693008F470C06850609345
:1004A000000180913E0298E8892780933E0268E02F
:1004B00080910C0187FD1DC0409158025091590256
:1004C00086FF72C0AFE3B2E0FA01962F84918D935C
:1004D00031969150D9F72FEF260F30E02F5F3F4F25
:1004E000240F351F3093590220935802C4E0C60FE1
:1004F00050C08FE392E00E941C05682F893008F4F9
:10050000B3C08FEF80930001CEE1C093010194E16D
:1005100089B1847431F49150D9F710925B02109232
:100520005502DF91CF910895683009F0A9CF83EC8F
:1005300080933E028AE58093010110920C0188812C
:10054000807609F045C09A81109247028981811115
:100550004AC01092480227E432E082E03093590208
:10056000209358028F3FC1F19F81911104C09E8159
:10057000981708F4892F8093000182CF1092000110
:1005800080913E0298E8892780933E02611190CFC6
:10059000C4E08FE392E00E949703CC3009F4B5CF1A
:1005A0008FEF80930001B1CFDA01EFE3F2E0962FF5
:1005B0008D9181939150E1F78ECFCE010E94BC05C1
:1005C0008F3F09F1882309F45BCF1092000158CFC7
:1005D000CE010E94CD04C6CF988197FD18C090E847
:1005E00090930C01C8CF8530A1F0863069F1883036
:1005F000E1F08930A1F08A3019F18B30D1F027E495
:1006000032E080E0ABCF8EE18093010139CF8E8163
:10061000E6CF90935B0227E432E080E09FCF909397
:100620005D0227E432E080E099CF2DE532E081E001
:1006300095CF8BE480934A0227E432E080E08ECFAE
:1006400027E432E081E08ACF8B81813091F18230E2
:1006500041F18330E1F0813291F0823241F080E06B
:1006600090E490930C017ECFC4E0C80F92CF85E355
:1006700091E0909359028093580289E6F1CF8EE978
:1006800090E0909359028093580289E0E9CF91114C
:1006900018C08EE091E0909359028093580284E054
:1006A000DFCF8CE890E0909359028093580282E269
:1006B000D7CF8EEA90E0909359028093580282E15E
:1006C000CFCF913051F0923051F680EC90E0909382
:1006D00059028093580282E1C3CF82ED90E090935B
:1006E0005902809358028CE3BBCFE9E6F0E08081A9
:1006F00083608083E89A8BE480934A028AE5809342
:1007000049020895A82FB92F80E090E041E050EA17
:10071000609530E009C02D9182279795879510F05C
:1007200084279527305EC8F36F5FA8F30895EADF4A
:100730008D939D930895CF93CFB7CF93DF93C395B8
:100740004E9BE9F74E9B0BC04E9B09C04E9B07C0CA
:100750004E9B05C04E9B03C04E9B01C08BC06F9348
:10076000C0915702DD27C25ADD4F2F9365E54E9B9E
:1007700003C02F916F91E6CF0F931F934F9320E00B
:1007800040E15F9309B1047406FB27F93F9350E001
:100790003BE039C0147440642F77012F5F5F1EC0A7
:1007A000406819B114742F7752501FC0406409B1CA
:1007B0002F770474D1F15F5F00C023C0406219B18C
:1007C0002F77147491F15F5F00C025C00474102767
:1007D000515012F45D5F0000115027952C3F19B164
:1007E000C8F614740127015027952C3FC8F64227FC
:1007F000499309B1047410274F73115027952C3F6A
:10080000A8F64695469519B1147479F00127015060
:1008100027952C3F98F66B5A60F3315009B1B0F62A
:1008200000C011E01CBB002719C03B503195C31B11
:10083000D04011E01CBB0881033C09F10B34F9F0F6
:10084000209155021981110F1213EDCF4A81441FD7
:10085000093651F10D3211F0013E29F700935C0287
:100860003F915F914F911F910F912F916F91CCB359
:10087000C0FD65CFDF91CF91CFBFCF91189520916B
:100880005C02222369F310915A02112391F534304E
:1008900092F130935A0220935602109157023BE096
:1008A000311B3093570227C000915A0201300CF5DA
:1008B0000AE54F7049F43091010134FD1DC00093E9
:1008C0000101CEE3D2E01CC03091490234FD14C0D6
:1008D00000934902CAE4D2E013C0052710E000C02B
:1008E00000000BB91AC0052710E0221F1DC010E040
:1008F00021C04AE502C032ED432FC4E1D0E032E02E
:100900001AB114645E9A0BB11AB954E420E865E395
:1009100020FF05270BB9279517951C3FF0F6669524
:10092000B8F7B1F720FF05270BB9279517951C3F9E
:10093000D0F62795179517FF052700001C3F0BB928
:10094000B0F629913A9519F70B7B10915B02110FC4
:10095000C651D0400BB911F01093550211E01CBBE9
:1009600000641AB11B7B402F4B7B54E05A95F1F782
:100970000BB91AB94BB974CF8091780293B19095A5
:100980009F7090937802089583B180958F709091B5
:100990007802982B90937802089526E531E0309301
:1009A000590220935802FC0120812076203211F058
:1009B00080E008952181213091F02930C9F7238109
:1009C0002330B1F782818D3000F5883000F5823018
:1009D00011F0843069F7809374028FEF0895FC0161
:1009E0002381233029F782818130E1F0833001F7C0
:1009F000809356019091780283B180958F70809397
:100A000078029093570182E008958E3089F688E04D
:100A1000809374028FEF9FEF90937602809375021C
:100A20008FEF089546E250E06EE971E086E591E0CF
:100A30000E94601186E20895862F089580930D012B
:100A40000895CF92DF92EF92FF920F931F93CF936F
:100A5000DF9360E080E10E9448088CE191E09F9381
:100A60008F93C1E0CF930E947D0C61E081E00E94F2
:100A700048081F9284E08F931F92CF9382E191E008
:100A80009F938F93CF930E947D0C8FEF9FEF909356
:100A90002701809326019093330180933201909334
:100AA0003F0180933E0190934B0180934A010AE4F9
:100AB00011E0CEE0D1E08DB79EB70A960FB6F8945C
:100AC0009EBF0FBE8DBF80ECC82ED12C93E0E92EC7
:100AD000F12C0E945111B6010E949B10F8019183E4
:100AE0008083998F888F0E9451118F73907897FD22
:100AF0003EC0F801938382839B8F8A8F0E9451119D
:100B0000B7010E949B100196998388830E9451111E
:100B1000B7010E949B1001969B838A830E9451110A
:100B200080FF22C081E090E09D878C870E94511158
:100B300080FF17C081E090E09F878E870C5F1F4F7A
:100B40002496F1E0CA31DF0721F681E080930D01A0
:100B5000DF91CF911F910F91FF90EF90DF90CF9099
:100B600008958FEF9FEFE8CF8FEF9FEFDDCF0197D5
:100B7000806C9F6F0196BDCF0F931F93CF93DF9330
:100B8000EC01062F90917402943099F19830A9F0FD
:100B9000923031F0802FDF91CF911F910F91089506
:100BA0008981882389F10E94390810920D01802FD4
:100BB000DF91CF911F910F9108952091750230918F
:100BC00076022F3F3F4F51F180917702102F80170F
:100BD000C8F0811B809377021123E1F289910E9472
:100BE0008C071150D9F7802FDF91CF911F910F9172
:100BF0000895898180938800802FDF91CF911F9184
:100C00000F910895182FE5CF0E9439080E94210501
:100C1000802FDF91CF911F910F91089589814A8193
:100C200050E0542F4427480F511D509376024093B3
:100C300075028B8180937702249604509A01ABEA67
:100C4000BAEA0E948C10880F892F881F990B919502
:100C5000682F342F20EC829F30191124832F0E949B
:100C60004808B2CFEF92FF920F931F93CF93DF9379
:100C700080910D01882309F48FC060912601709145
:100C8000270177FD22C000912C0120912A0140917B
:100C9000280188EB98E00E94E10800913001209142
:100CA0002E0140912C0160912A0188EB98E00E946E
:100CB000E1080091280120912601409130016091C6
:100CC0002E0188EB98E00E94E10844E250E062E3E4
:100CD00071E086E291E00E9469110AE411E0CEE041
:100CE000D1E043E0E42EF12C2C853D8548815981EB
:100CF000249FC001259F900D349F900D1124F80171
:100D000040815181840F951F803C910508F059C0A6
:100D1000F801918380832E853F854A815B81249FE2
:100D2000C001259F900D349F900D1124F801428140
:100D30005381840F951F80349105A8F5F8019383A2
:100D400082830C5F1F4F2496F1E0CA31DF0761F602
:100D50000091500120914E0140914C0160914A0157
:100D600088EB98E00E94E108009154012091520123
:100D70004091500160914E0188EB98E00E94E1089B
:100D800000914C0120914A0140915401609152011F
:100D900088EB98E00E94E108DF91CF911F910F91BD
:100DA000FF90EF9008953195219531093F872E8767
:100DB0000E945111B7010E949B1001969B838A8368
:100DC000C0CF3195219531093D872C870E94511163
:100DD000B7010E949B100196998388839CCF10983D
:100DE000119812981598139816981498089A099AB9
:100DF0000A9A0D9A0B9A0E9A0C9A18B88FEF87B927
:100E00000895882329F0813059F0823029F008951F
:100E10001598139A169A0895159A139A1698089584
:100E2000159A1398169A08950E94010718B817B8D2
:100E3000119A1098129A00000000000000000000B3
:100E400000000000000086B18079E9F7129811983F
:100E50008FEF87B90895CF93DF931F92CDB7DEB799
:100E600069830E94140710981198129A8FEF87B91E
:100E7000698168B900000000000000000000000067
:100E80000000000012980F90DF91CF9108950E940A
:100E90001407109817B8119A129A00000000000069
:100EA0000000000000000000000086B112981198B8
:100EB0009FEF97B90895811102C0149A089514986C
:100EC0000895CF93DF93C9E7D2E0888360E480E0A0
:100ED0000E942B0710927B0260E481E00E942B07A6
:100EE00010927D028881682F6F7360648295869569
:100EF00086958370DF91CF910C942B07CF938093CD
:100F00007A02C82FC86B6C2F80E00E942B076C2FD1
:100F100081E0CF910C942B07CF93DF93D82FC09112
:100F20007902C295C695C695C3708C2F0E9414078E
:100F30008FEF87B9D8B9109A1198129A0000000063
:100F40000000000000000000000000001298EC2FDC
:100F5000F0E0EE0FFF1FE558FD4F80818F5F80832B
:100F6000809179028F5F80937902803C18F4DF9141
:100F7000CF91089580917A028F5F0E947E0780E072
:100F8000DF91CF910C9461071F93CF93DF93182FBC
:100F9000C0917902C295C695C695C3708C2F0E94E8
:100FA000140718B817B892B1976092B90000000002
:100FB000000000000000000000000000D6B192B167
:100FC000987F92B9111110C0EC2FF0E0EE0FFF1FC7
:100FD000E558FD4F90819F5F9083909179029F5FCC
:100FE00090937902903C28F48D2FDF91CF911F913F
:100FF000089580917A028F5F0E947E0780E00E94B0
:1010000061078D2FDF91CF911F910895CF93DF93CB
:10101000D0E08D2F0E947E0780E00E946107C0EC27
:1010200080E00E948C07C150D9F7DF5FD83089F784
:10103000DF91CF910895CF93C82FC06C6C2F80E0C3
:101040000E942B076C2F81E0CF910C942B0780E03E
:101050000E941B0880E00E947E0780E00E946107DA
:1010600010927C0210927B0210927E0210927D02FE
:1010700008950E94EF06149A6FE380E00E942B0708
:101080006FE381E00E942B070E9406080C9427085A
:10109000CF93C82F862F0E947E078C2FCF910C9460
:1010A0006107CF93DF931F92CDB7DEB769830E94AC
:1010B0007E076981862F880F860F880F0F90DF913A
:1010C000CF910C94610708950F931F93CF93DF93F3
:1010D000D82FC62F162F169516951695612F0E949C
:1010E000480881E00E94C40780E00E94C407082FDE
:1010F000612F8D2F0E944808C77081E090E001C0E9
:10110000880FCA95EAF7802B0E948C0780E0DF9158
:10111000CF911F910F910C941B080F931F93CF93A6
:10112000DF93D82FC62F162F169516951695612F7B
:101130000E94480881E00E94C40780E00E94C40722
:10114000082F612F8D2F0E944808C77021E030E0E2
:1011500001C0220FCA95EAF7822F809580230E9452
:101160008C0780E0DF91CF911F910F910C941B08A9
:101170000F931F93CF93DF93D82FC62F162F16955B
:1011800016951695612F0E94480881E00E94C407B9
:1011900080E00E94C407082F612F8D2F0E9448080D
:1011A000C77081E090E001C0880FCA95EAF78027F8
:1011B0000E948C0780E0DF91CF911F910F910C94DA
:1011C0001B086F927F928F929F92AF92BF92CF92A5
:1011D000DF92EF92FF920F931F93CF93DF937C01E7
:1011E000762E642EB22EC22ED12CC61AD108E02F34
:1011F000F0E0E41BF1091C141D040CF052C099240A
:1012000093941E161F060CF052C088248394D7FCBA
:1012100052C0F7FD55C0CE16DF0654F18F01000F06
:10122000111FE801CC19DD09CC0CDD1CB71471F0DD
:10123000662D872DF7010995D7FD03C0680CCC19E1
:10124000DD09C00FD11F790CB710F2CF662D872DA5
:10125000F701DF91CF911F910F91FF90EF90DF90F9
:10126000CF90BF90AF909F908F907F906F90099498
:10127000CC0CDD1CE601CE1BDF0B5F01AA0CBB1CF6
:10128000061521F3662D872DF7010995D7FD03C0BB
:10129000790CCA19DB09CC0DDD1D680C0611F2CFE3
:1012A000D5CF99249A941E161F060CF4AECF88242D
:1012B0008A94D7FEAECFD194C194D108F7FFABCFBB
:1012C000F195E195F109A7CFDF92EF92FF920F938D
:1012D0001F93CF93DF93C82F162FD42EE22E4423D3
:1012E00089F00FEF020F080FF42EF60ED62F6D2F98
:1012F0008C2F0E9464086D2F802F0E946408DF5F8E
:10130000DF11F5CFEE2081F0DFEFD10FDD0D0C2FD7
:101310000E0D612F8C2F0E9464086D2F8C2F0E9460
:101320006408CF5FC013F5CFDF91CF911F910F916C
:10133000FF90EF90DF9008955F926F927F928F926F
:101340009F92AF92BF92CF92DF92EF92FF920F9354
:101350001F93CF93DF93582EB62E662E681A042F54
:1013600010E0EE24FF24E01AF10AEE0CFF1C83E0EB
:10137000E80EF11C66E0C62ED12CC0E0D0E014C00F
:101380009E01201B310B220F331F220F331F265FBC
:101390003F4FE20EF31E01501109219684E0C80E62
:1013A000D11C0C171D07CCF19B2C900E692D8C2E97
:1013B000850C882D0E946408AB2CA01A6A2D882DFC
:1013C0000E946408692D852C8C1A882D0E9464085F
:1013D0006A2D882D0E94640896187C2E7B0C672D40
:1013E000892D0E9464088B2C8C1A682D892D0E94EF
:1013F0006408A618672D8A2D0E946408682D8A2D1E
:101400000E946408F7FEBCCFEC0CFD1C219684E022
:10141000C80ED11C0C171D073CF6DF91CF911F9110
:101420000F91FF90EF90DF90CF90BF90AF909F9083
:101430008F907F906F905F9008950F931F93CF933D
:10144000DF9325E0829FC0011124EC01C95CDE4FCF
:101450008C01045C1E4FFE0184910E948C07219632
:10146000C017D107C1F780E00E948C0780E0DF91B0
:10147000CF911F910F910C941B08FF920F931F9314
:10148000CF93DF93882329F100E090E0E02FF0E094
:10149000EC53FE4FE4910E0F9F5F9813F7CF10E0CF
:1014A000F801EC53FE4FF490FF2069F0C0E0D0E06B
:1014B0000B531E4FF801EC0FFD1F84910E948C0707
:1014C0002196CF15B8F3DF91CF911F910F91FF9027
:1014D0000895E4ECF1E000E010E0E5CFCF93DF9376
:1014E000EC018881882331F021960E941D0A8991A0
:1014F0008111FBCFDF91CF91089590937D0180936F
:101500007C010895CF93C82F8A3039F0E0917C0197
:10151000F0917D018C2FCF910994E0917C01F091A5
:101520007D018DE00995E0917C01F0917D018C2F8A
:10153000CF9109941F93CF93DF930097C9F0FC01DB
:1015400010811123A9F0EC01219609C0E0917C01E2
:10155000F0917D01812F09951991112349F01A30DD
:10156000A9F7E0917C01F0917D018DE00995EECF26
:10157000DF91CF911F910895CF92DF92EF92FF926A
:101580000F931F93CF93DF931F92CDB7DEB77A01EE
:101590000097A9F1FC01680F791F08C06F018FEF58
:1015A000C81AD80A8081882329F0F6016F01E6174E
:1015B000F707A1F7E114F10411F100E010E010C009
:1015C000BFEFCB1ADB0A9A3021F1E0917C01F09158
:1015D0007D01892F09950F5F1F4F0E151F0579F0AB
:1015E000D6019C919111ECCFE0917C01F0917D01AD
:1015F00080E209950F5F1F4F0E151F0589F70F90A9
:10160000DF91CF911F910F91FF90EF90DF90CF90DE
:101610000895E0917C01F0917D018DE09983099519
:101620009981D3CF1F93CF93DF930097D9F0EC012B
:101630002196FC01149111110CC014C0E0917C01A1
:10164000F0917D01812F0995FE01149121961123BE
:1016500049F01A3099F7E0917C01F0917D018DE01D
:101660000995ECCFDF91CF911F910895E0917C0116
:10167000F0917D018DE00995E0917C01F0917D0173
:101680008AE00994CF938F70E82FF0E0E954FC4F83
:10169000C491CA3039F0E0917C01F0917D018C2F2A
:1016A000CF910994E0917C01F0917D018DE0099545
:1016B000E0917C01F0917D018C2FCF910994CF9323
:1016C000C82F82958F700E94420B8C2FCF910C9463
:1016D000420B1F93CF93DF931F92CDB7DEB7182F26
:1016E000892F82958F7099830E94420B9981892F4F
:1016F0000E94420B812F82958F700E94420B812F96
:101700000F90DF91CF911F910C94420BCF92DF92FB
:10171000EF92FF926B017C01C7010E94690BC60129
:10172000FF90EF90DF90CF900C94690B3F924F9217
:101730005F926F927F928F929F92AF92BF92CF9261
:10174000DF92EF92FF920F931F93CF93DF93CDB76A
:10175000DEB7A1970FB6F894DEBF0FBECDBFC82E7F
:10176000662E722E442311F017FD83C0C801B70105
:1017700033243394411101C0312C44244A94460C43
:10178000431818A28C2C992487FC9094A92CB92C6E
:10179000A50194010E94AF10FB01EF70FF27E954EF
:1017A000FC4F64916F8FB901CA016E012EE1C20E28
:1017B000D11C542C11C0A50194010E94AF10FB0153
:1017C000EF70FF27E954FC4F6491F6016083B90183
:1017D000CA01F1E0CF1AD1085A942FEF521641F006
:1017E000611571058105910531F7F6017082F1CF20
:1017F000FE017F96E419F109332049F017FD41C03D
:10180000EF28E02AE12A09F43FC08BE282936620A8
:10181000C1F08F0108C0E0917C01F0917D01892F1A
:1018200009956A9471F0F80191918F019A3099F7B6
:10183000E0917C01F0917D018DE099A3099599A13A
:10184000EACFA1960FB6F894DEBF0FBECDBFDF91F1
:10185000CF911F910F91FF90EF90DF90CF90BF90AD
:10186000AF909F908F907F906F905F904F903F9040
:10187000089566277727CB016E197F09800B910B9E
:1018800077CF8DE28293C3CF80E28293C0CF90ED79
:10189000980F81E09A3008F080E081950895A82F94
:1018A000FB0180E090E0AA23E1F0249120532A304C
:1018B000E0F49C01220F331FAC01440F551F440F6D
:1018C000551F440F551F240F351FAA2379F044914B
:1018D00050E040535109CA01820F931F3196A11164
:1018E000E4CF208120532A3020F3089540815527EA
:1018F00047FD509540535109EECF2F923F924F92A2
:101900005F926F927F928F929F92AF92BF92CF928F
:10191000DF92EF92FF920F931F93CF93DF93CDB798
:10192000DEB727970FB6F894DEBF0FBECDBF4C8C45
:101930002D8C3E8C3E012FE1620E711C9AE0C92E67
:10194000D12CE12CF12C6FC0F1018491882309F492
:101950003FC1853209F031C1F101319684918D3258
:1019600009F473C01C821B82442009F476C0849160
:10197000803309F4C0C18E3209F4BDC180E2582E13
:1019800084918A3209F076C0D3010D90BC91A02DCC
:10199000BA83A9831F01BFEF2B1A3B0AF3013296CA
:1019A0003F01442009F46FC0F10184918E3209F4A3
:1019B0006FC0BDEFAB2EBFEBBB2E442009F47EC041
:1019C000F1018491833209F47EC020E030E04420AC
:1019D00009F480C0F10184918C3609F480C040E0A4
:1019E00050E0442009F482C0F1018491E82FF0E036
:1019F000EF36F10509F482C0E037F1050CF003C1C0
:101A0000E336F10509F40BC2E436F10509F490C19F
:101A1000B59731F4E0917C01F0917D0185E2099563
:101A20004FEF241A340A41108FCFD1018C918823B3
:101A300009F4CEC0853209F0C0C0F1013196D10160
:101A400011968C918D3209F08DCFF101329641E0E3
:101A500050E05C834B8341108ACF8081803309F44E
:101A600045C18E3209F442C100E2502E8A3209F497
:101A70008BCF80811F0180538A3008F417C11A82EE
:101A80001982411091CFD1018C918E3209F091CF02
:101A900081010F5F1F4F442009F418C1F8018491A0
:101AA0008A3209F019C1F301A080B180B2E06B0E57
:101AB000711CE2E02E0E311C411082CFD1018C91BD
:101AC000833209F082CFBFEF2B1A3B0A21E030E0CE
:101AD000411080CFD1018C918C3609F080CFBFEFBF
:101AE0002B1A3B0A41E050E041107ECFD1018C918E
:101AF000E82FF0E0EF36F10509F07ECFD301452B5A
:101B000009F0C5C14D915C91BA0180E090E0A3015C
:101B10004E5F5F4F3A01E537F10509F4C4C1EF3676
:101B2000F10509F42FC2E837F10509F459C200E0C4
:101B300010E08EE7882E81E0982E89819A81080F27
:101B4000191FAB81BC81AB2BB1F45801B1E0AB1ACA
:101B5000B108101611060CF06FC2E0917C01F091F3
:101B60007D01852D0995E1E0AE1AB108B0F701E0DD
:101B700010E002501109C40101978E57914008F4FA
:101B8000E2C154010CC0E0917C01F0917D01892FEC
:101B90000995BEE7AB16B1E0BB0609F4D4C1D50187
:101BA0009E915D019A3079F7E0917C01F0917D0181
:101BB0008DE09F8309959F81E6CF182F8A3009F425
:101BC00036C1E0917C01F0917D01812F099528CFEC
:101BD00080E090E027960FB6F894DEBF0FBECDBF31
:101BE000DF91CF911F910F91FF90EF90DF90CF90F9
:101BF000BF90AF909F908F907F906F905F904F902D
:101C00003F902F900895E537F10509F477CFE83735
:101C1000F10509F473CFE337F10509F001CFF301C2
:101C20008080918042E0640E711C8114910409F45B
:101C3000D0C1F40101900020E9F73197E819F909C2
:101C400089819A818E1B9F0B9A8389838B819C81CA
:101C5000892B09F402C1D4019C91992309F44FC046
:101C60001A141B040CF04BC084010F5F1F4FFFEFD1
:101C7000AF1ABF0AA80CB91C0EC0E0917C01F0910C
:101C80007D01892F0995D8019D918D019923B9F185
:101C9000AA15BB05A1F19A3081F7E0917C01F09182
:101CA0007D018DE09F8309959F81E7CFBF01842D42
:101CB0000E944F0C9A838983F101411025C18081D4
:101CC00080538A3008F425C11F016BCED1011196D3
:101CD0008C918A3209F4E7CE80538A3008F4AEC082
:101CE00018011DEFA12E1FEBB12E67CE8181319619
:101CF00070E3572EBBCE3196A0E35A2E41CEEB8136
:101D0000FC81EF2B09F48CCE09811A810150110955
:101D100029813A81121613060CF082CEE0917C01E3
:101D2000F0917D0180E2099501501109B8F778CE54
:101D3000F301452B09F0D3C060817181882777FDBD
:101D40008095982F93012E5F3F4F390197FDD0C0AA
:101D50001E821D820EE711E001C0850158015FEF70
:101D6000A51AB50A4501A70196010E94D110605D30
:101D7000D8016C93B901CA016115710581059105FE
:101D800061F7ED81FE81EF2B41F04801F2E08F0E0B
:101D9000911CEDE2D8011196EC930EE711E00819C1
:101DA000190929813A81020F131F4B815C81452B50
:101DB000B1F4580151E0A51AB108101611060CF043
:101DC00040C1E0917C01F0917D01852D099581E074
:101DD000A81AB108B0F701E010E002501109C401DF
:101DE00001978E57914068F496C0E0917C01F09184
:101DF0007D01892F0995EEE7F1E0E815F90509F471
:101E00008AC0D4019E914D019A3079F7E0917C010E
:101E1000F0917D018DE09F8309959F81E6CFF301CD
:101E2000108132E0630E711C1A3009F0CACEE091C5
:101E30007C01F0917D018DE00995C3CEB801842D20
:101E40000E944F0C5C01F801411095C080818053C5
:101E50008A3008F495C01F01B0CD09811A81015064
:101E6000110929813A81121613060CF0E7C0E0919E
:101E70007C01F0917D01852D099501501109B8F77C
:101E800041E050E0425051095A834983E4CE6D91BC
:101E90007D918D919C91A3014C5F5F4F3A01E53795
:101EA000F10509F03CCE0EE711E001C085015801B3
:101EB0005FEFA51AB50A4501A70196010E94AF1070
:101EC000605DD8016C93B901CA0161157105810586
:101ED000910561F70EE711E0081919092ECE60810E
:101EE000718182819381B4E06B0E711C97FF30CFBA
:101EF00090958095709561957F4F8F4F9F4F41E0F2
:101F000050E05E834D8326CF849180538A3008F061
:101F1000DBCE3196D2CEEB81FC81EF2B09F480CD64
:101F20005801F1E0AF1AB108101611060CF078CD87
:101F3000E0917C01F0917D0180E2099521E0A21AF7
:101F4000B108B0F76DCD4B815C81452B09F468CDAC
:101F50005801E1E0AE1AB108101611060CF060CD80
:101F6000E0917C01F0917D0180E20995F1E0AF1AEA
:101F7000B108B0F755CD849180538A3008F06BCF0B
:101F8000319662CFEEE7F1E0AB01BC0101C0FC018C
:101F9000CF0101964C01A42FA770A05DA083A3E000
:101FA0007695679557954795AA95D1F741155105AF
:101FB0006105710561F7232B09F48CCF4F01B2E065
:101FC0008B0E911C20E321830EE711E008191909FB
:101FD000B4CDE5E0F0E0B6E08B2EB1E09B2E30CE44
:101FE0005EE7852E51E0952EF4010FC0405D4083E1
:101FF000319644E096958795779567954A95D1F700
:10200000611571058105910551F0AB014F705527A0
:102010004A3051055CF3495A40833196EACF4F016B
:10202000232B09F457CF28E7D4012C9332E0830EF9
:10203000911C40E341834ECF85019DCD1A830983D6
:102040000ACE8501CCCE2EE088E190E00FB6F89460
:10205000A895809360000FBE209360008BB18B7BAE
:102060008BB98AB184648AB980E49CE90197F1F75D
:102070008AB18B7B8AB9549A5C9884B1807F84B989
:1020800085B18F6085B985E080936E00559A809107
:1020900080008968809380008091810081608093B6
:1020A000810080E2809388000E94750380E090E0C8
:1020B0000E947B118131974471F0E3E3F1E0649178
:1020C00080E090E00E948111E4E3F1E0649181E01E
:1020D00090E00E9481110E9439088DE19AE00E94EF
:1020E0007D0A0E94210578940E943206A8950E94DC
:1020F000280283B180958F7090917802982B9093ED
:1021000078028091000090910100892B69F383B1DE
:102110008F708A3049F7FFCFA29FB001B39FC001F3
:10212000A39F700D811D1124911DB29F700D811D03
:102130001124911D089597FB072E16F4009407D0E3
:1021400077FD09D00E94F01007FC05D03EF4909571
:1021500081959F4F0895709561957F4F0895A1E2F5
:102160001A2EAA1BBB1BFD010DC0AA1FBB1FEE1F11
:10217000FF1FA217B307E407F50720F0A21BB30B5C
:10218000E40BF50B661F771F881F991F1A9469F7D8
:1021900060957095809590959B01AC01BD01CF0134
:1021A0000895052E97FB1EF400940E94E81057FD39
:1021B00007D00E94AF1007FC03D04EF40C94E81037
:1021C00050954095309521953F4F4F4F5F4F089563
:1021D00090958095709561957F4F8F4F9F4F089593
:1021E000AA1BBB1B51E107C0AA1FBB1FA617B7073D
:1021F00010F0A61BB70B881F991F5A95A9F7809559
:102200009095BC01CD0108958F929F92AF92BF929D
:10221000CF92DF92EF92FF92CF93DF93EC01688130
:1022200079818A819B81611571058105910521F470
:1022300064E279ED8BE597E02DE133EF41E050E08A
:102240000E94D11049015A019B01AC01A7EAB1E4F7
:102250000E94A8116B017C01ACEEB4EFA5019401C2
:102260000E94B611C60ED71EE81EF91EF7FE06C064
:1022700081E0C81AD108E10880E8F80AC882D9824A
:10228000EA82FB82C6019F77DF91CF91FF90EF90AA
:10229000DF90CF90BF90AF909F908F9008950C9457
:1022A000041182E091E00C940411A0E0B0E080936E
:1022B000020190930301A0930401B09305010895D6
:1022C000FB01DC0102C005900D9241505040D8F74F
:1022D00008956817790768F4FB01DC01E40FF51F26
:1022E000A40FB51F02C002900E9241505040D8F783
:1022F00008950C948F11A8E1B0E042E050E00C94F6
:102300009A11262FF999FECF1FBA92BD81BD20BD2B
:102310000FB6F894FA9AF99A0FBE01960895FB0148
:10232000DC0102C001900D9241505040D8F7089551
:10233000DC01CB01FC01F999FECF06C0F2BDE1BD85
:10234000F89A319600B40D9241505040B8F7089574
:102350000E948C10A59F900DB49F900DA49F800D9E
:10236000911D11240895B7FF0C94A8110E94A81183
:0A237000821B930B0895F894FFCF31
:0C237A00FF5A01000000286E696C290069
:00000001FF
